{
  "_format": "hh-sol-artifact-1",
  "contractName": "Token",
  "sourceName": "contracts/Token.sol",
  "abi": [
    {
      "inputs": [],
      "name": "decimals",
      "outputs": [
        {
          "internalType": "uint256",
          "name": "",
          "type": "uint256"
        }
      ],
      "stateMutability": "view",
      "type": "function"
    },
    {
      "inputs": [],
      "name": "name",
      "outputs": [
        {
          "internalType": "string",
          "name": "",
          "type": "string"
        }
      ],
      "stateMutability": "view",
      "type": "function"
    },
    {
      "inputs": [],
      "name": "symbol",
      "outputs": [
        {
          "internalType": "string",
          "name": "",
          "type": "string"
        }
      ],
      "stateMutability": "view",
      "type": "function"
    },
    {
      "inputs": [],
      "name": "totalSupply",
      "outputs": [
        {
          "internalType": "uint256",
          "name": "",
          "type": "uint256"
        }
      ],
      "stateMutability": "view",
      "type": "function"
    }
  ],
  "bytecode": "0x60806040526040518060400160405280600981526020017f4a616e20546f6b656e00000000000000000000000000000000000000000000008152506000908051906020019061004f9291906100d3565b506040518060400160405280600381526020017f4a414e00000000000000000000000000000000000000000000000000000000008152506001908051906020019061009b9291906100d3565b506012600255600254600a6100b091906102e2565b620f42406100be919061032d565b6003553480156100cd57600080fd5b506103e8565b8280546100df906103b6565b90600052602060002090601f0160209004810192826101015760008555610148565b82601f1061011a57805160ff1916838001178555610148565b82800160010185558215610148579182015b8281111561014757825182559160200191906001019061012c565b5b5090506101559190610159565b5090565b5b8082111561017257600081600090555060010161015a565b5090565b7f4e487b7100000000000000000000000000000000000000000000000000000000600052601160045260246000fd5b60008160011c9050919050565b6000808291508390505b60018511156101fc578086048111156101d8576101d7610176565b5b60018516156101e75780820291505b80810290506101f5856101a5565b94506101bc565b94509492505050565b60008261021557600190506102d1565b8161022357600090506102d1565b8160018114610239576002811461024357610272565b60019150506102d1565b60ff84111561025557610254610176565b5b8360020a91508482111561026c5761026b610176565b5b506102d1565b5060208310610133831016604e8410600b84101617156102a75782820a9050838111156102a2576102a1610176565b5b6102d1565b6102b484848460016101b2565b925090508184048111156102cb576102ca610176565b5b81810290505b9392505050565b6000819050919050565b60006102ed826102d8565b91506102f8836102d8565b92506103257fffffffffffffffffffffffffffffffffffffffffffffffffffffffffffffffff8484610205565b905092915050565b6000610338826102d8565b9150610343836102d8565b9250817fffffffffffffffffffffffffffffffffffffffffffffffffffffffffffffffff048311821515161561037c5761037b610176565b5b828202905092915050565b7f4e487b7100000000000000000000000000000000000000000000000000000000600052602260045260246000fd5b600060028204905060018216806103ce57607f821691505b602082108114156103e2576103e1610387565b5b50919050565b610377806103f76000396000f3fe608060405234801561001057600080fd5b506004361061004c5760003560e01c806306fdde031461005157806318160ddd1461006f578063313ce5671461008d57806395d89b41146100ab575b600080fd5b6100596100c9565b604051610066919061028a565b60405180910390f35b610077610157565b60405161008491906102c5565b60405180910390f35b61009561015d565b6040516100a291906102c5565b60405180910390f35b6100b3610163565b6040516100c0919061028a565b60405180910390f35b600080546100d69061030f565b80601f01602080910402602001604051908101604052809291908181526020018280546101029061030f565b801561014f5780601f106101245761010080835404028352916020019161014f565b820191906000526020600020905b81548152906001019060200180831161013257829003601f168201915b505050505081565b60035481565b60025481565b600180546101709061030f565b80601f016020809104026020016040519081016040528092919081815260200182805461019c9061030f565b80156101e95780601f106101be576101008083540402835291602001916101e9565b820191906000526020600020905b8154815290600101906020018083116101cc57829003601f168201915b505050505081565b600081519050919050565b600082825260208201905092915050565b60005b8381101561022b578082015181840152602081019050610210565b8381111561023a576000848401525b50505050565b6000601f19601f8301169050919050565b600061025c826101f1565b61026681856101fc565b935061027681856020860161020d565b61027f81610240565b840191505092915050565b600060208201905081810360008301526102a48184610251565b905092915050565b6000819050919050565b6102bf816102ac565b82525050565b60006020820190506102da60008301846102b6565b92915050565b7f4e487b7100000000000000000000000000000000000000000000000000000000600052602260045260246000fd5b6000600282049050600182168061032757607f821691505b6020821081141561033b5761033a6102e0565b5b5091905056fea2646970667358221220aabdd864b3bce37df94911e71fb6c40c1a30071c05600f7bed4e31ad7b3c67a664736f6c63430008090033",
  "linkReferences": {},
  "deployedLinkReferences": {}
}