{
  "_format": "hh-sol-artifact-1",
  "contractName": "Token",
  "sourceName": "contracts/Token.sol",
  "abi": [
    {
      "inputs": [],
      "name": "decimals",
      "outputs": [
        {
          "internalType": "uint256",
          "name": "",
          "type": "uint256"
        }
      ],
      "stateMutability": "view",
      "type": "function"
    },
    {
      "inputs": [],
      "name": "name",
      "outputs": [
        {
          "internalType": "string",
          "name": "",
          "type": "string"
        }
      ],
      "stateMutability": "view",
      "type": "function"
    },
    {
      "inputs": [],
      "name": "symbol",
      "outputs": [
        {
          "internalType": "string",
          "name": "",
          "type": "string"
        }
      ],
      "stateMutability": "view",
      "type": "function"
    }
  ],
  "bytecode": "0x60806040526040518060400160405280600981526020017f4a616e20546f6b656e00000000000000000000000000000000000000000000008152506000908051906020019061004f9291906100b3565b506040518060400160405280600381526020017f4a414e00000000000000000000000000000000000000000000000000000000008152506001908051906020019061009b9291906100b3565b5060126002553480156100ad57600080fd5b506101b7565b8280546100bf90610185565b90600052602060002090601f0160209004810192826100e15760008555610128565b82601f106100fa57805160ff1916838001178555610128565b82800160010185558215610128579182015b8281111561012757825182559160200191906001019061010c565b5b5090506101359190610139565b5090565b5b8082111561015257600081600090555060010161013a565b5090565b7f4e487b7100000000000000000000000000000000000000000000000000000000600052602260045260246000fd5b6000600282049050600182168061019d57607f821691505b602082108114156101b1576101b0610156565b5b50919050565b610348806101c66000396000f3fe608060405234801561001057600080fd5b50600436106100415760003560e01c806306fdde0314610046578063313ce5671461006457806395d89b4114610082575b600080fd5b61004e6100a0565b60405161005b919061025b565b60405180910390f35b61006c61012e565b6040516100799190610296565b60405180910390f35b61008a610134565b604051610097919061025b565b60405180910390f35b600080546100ad906102e0565b80601f01602080910402602001604051908101604052809291908181526020018280546100d9906102e0565b80156101265780601f106100fb57610100808354040283529160200191610126565b820191906000526020600020905b81548152906001019060200180831161010957829003601f168201915b505050505081565b60025481565b60018054610141906102e0565b80601f016020809104026020016040519081016040528092919081815260200182805461016d906102e0565b80156101ba5780601f1061018f576101008083540402835291602001916101ba565b820191906000526020600020905b81548152906001019060200180831161019d57829003601f168201915b505050505081565b600081519050919050565b600082825260208201905092915050565b60005b838110156101fc5780820151818401526020810190506101e1565b8381111561020b576000848401525b50505050565b6000601f19601f8301169050919050565b600061022d826101c2565b61023781856101cd565b93506102478185602086016101de565b61025081610211565b840191505092915050565b600060208201905081810360008301526102758184610222565b905092915050565b6000819050919050565b6102908161027d565b82525050565b60006020820190506102ab6000830184610287565b92915050565b7f4e487b7100000000000000000000000000000000000000000000000000000000600052602260045260246000fd5b600060028204905060018216806102f857607f821691505b6020821081141561030c5761030b6102b1565b5b5091905056fea2646970667358221220455e26e80b3f5180ec6867aaec7592d34050973fbbf61878d47fca67a678f6a464736f6c63430008090033",
  "linkReferences": {},
  "deployedLinkReferences": {}
}